{
  "_format": "hh3-artifact-1",
  "contractName": "InvoiceChain",
  "sourceName": "contracts/InvoiceChain.sol",
  "abi": [
    {
      "anonymous": false,
      "inputs": [
        {
          "indexed": true,
          "internalType": "uint256",
          "name": "invoiceId",
          "type": "uint256"
        },
        {
          "indexed": true,
          "internalType": "address",
          "name": "creator",
          "type": "address"
        },
        {
          "indexed": false,
          "internalType": "string",
          "name": "buyer",
          "type": "string"
        },
        {
          "indexed": false,
          "internalType": "uint256",
          "name": "amount",
          "type": "uint256"
        }
      ],
      "name": "InvoiceCreated",
      "type": "event"
    },
    {
      "inputs": [
        {
          "internalType": "string",
          "name": "buyer",
          "type": "string"
        },
        {
          "internalType": "uint256",
          "name": "amount",
          "type": "uint256"
        }
      ],
      "name": "createInvoice",
      "outputs": [],
      "stateMutability": "nonpayable",
      "type": "function"
    },
    {
      "inputs": [],
      "name": "invoiceCount",
      "outputs": [
        {
          "internalType": "uint256",
          "name": "",
          "type": "uint256"
        }
      ],
      "stateMutability": "view",
      "type": "function"
    }
  ],
  "bytecode": "0x608060405234801561000f575f80fd5b506102328061001d5f395ff3fe608060405234801561000f575f80fd5b5060043610610034575f3560e01c80631346f0c414610038578063d4280d5a14610052575b5f80fd5b6100405f5481565b60405190815260200160405180910390f35b6100656100603660046100d7565b610067565b005b5f8054908061007583610186565b9190505550336001600160a01b03165f547f3dd6d22776ff6d9d4ebff348c9dcbf3666c744d95ee1af30c9b37bee5d6b99c584846040516100b79291906101aa565b60405180910390a35050565b634e487b7160e01b5f52604160045260245ffd5b5f80604083850312156100e8575f80fd5b823567ffffffffffffffff808211156100ff575f80fd5b818501915085601f830112610112575f80fd5b813581811115610124576101246100c3565b604051601f8201601f19908116603f0116810190838211818310171561014c5761014c6100c3565b81604052828152886020848701011115610164575f80fd5b826020860160208301375f602093820184015298969091013596505050505050565b5f600182016101a357634e487b7160e01b5f52601160045260245ffd5b5060010190565b604081525f83518060408401525f5b818110156101d657602081870181015160608684010152016101b9565b505f606082850101526060601f19601f830116840101915050826020830152939250505056fea2646970667358221220eb6bfb1bde2fa087047ae7e832d8c03f34d0b9e801250a973e22d6d5cac39a5564736f6c63430008140033",
  "linkReferences": {},
  "deployedLinkReferences": {},
  "immutableReferences": {},
  "inputSourceName": "project/contracts/InvoiceChain.sol",
  "buildInfoId": "solc-0_8_20-135a6d0b0da2c2f81fb0adccebe2b17e94574d82"
}